{
	"data": {
		"bytecode": {
			"linkReferences": {},
			"object": "608060405234801561001057600080fd5b5060405161038f38038061038f83398181016040528101906100329190610054565b80600081905550506100a7565b60008151905061004e81610090565b92915050565b60006020828403121561006a5761006961008b565b5b60006100788482850161003f565b91505092915050565b6000819050919050565b600080fd5b61009981610081565b81146100a457600080fd5b50565b6102d9806100b66000396000f3fe608060405234801561001057600080fd5b506004361061004c5760003560e01c806307391dd6146100515780630f3d02041461006d578063a055fcea1461009d578063f2c9ecd8146100cd575b600080fd5b61006b60048036038101906100669190610161565b6100eb565b005b6100876004803603810190610082919061018e565b6100f5565b60405161009491906101dd565b60405180910390f35b6100b760048036038101906100b29190610161565b61010b565b6040516100c491906101dd565b60405180910390f35b6100d5610143565b6040516100e291906101dd565b60405180910390f35b8060008190555050565b6000818361010391906101f8565b905092915050565b600060018290806001815401808255809150506001900390600052602060002001600090919091909150556001805490509050919050565b60008054905090565b60008135905061015b8161028c565b92915050565b60006020828403121561017757610176610287565b5b60006101858482850161014c565b91505092915050565b600080604083850312156101a5576101a4610287565b5b60006101b38582860161014c565b92505060206101c48582860161014c565b9150509250929050565b6101d78161024e565b82525050565b60006020820190506101f260008301846101ce565b92915050565b60006102038261024e565b915061020e8361024e565b9250827fffffffffffffffffffffffffffffffffffffffffffffffffffffffffffffffff0382111561024357610242610258565b5b828201905092915050565b6000819050919050565b7f4e487b7100000000000000000000000000000000000000000000000000000000600052601160045260246000fd5b600080fd5b6102958161024e565b81146102a057600080fd5b5056fea26469706673582212209eecd94cd144a33c8d7a3bfe7c07d3fc8accd339026b9c322ba2ce23dee809cc64736f6c63430008070033",
			"opcodes": "PUSH1 0x80 PUSH1 0x40 MSTORE CALLVALUE DUP1 ISZERO PUSH2 0x10 JUMPI PUSH1 0x0 DUP1 REVERT JUMPDEST POP PUSH1 0x40 MLOAD PUSH2 0x38F CODESIZE SUB DUP1 PUSH2 0x38F DUP4 CODECOPY DUP2 DUP2 ADD PUSH1 0x40 MSTORE DUP2 ADD SWAP1 PUSH2 0x32 SWAP2 SWAP1 PUSH2 0x54 JUMP JUMPDEST DUP1 PUSH1 0x0 DUP2 SWAP1 SSTORE POP POP PUSH2 0xA7 JUMP JUMPDEST PUSH1 0x0 DUP2 MLOAD SWAP1 POP PUSH2 0x4E DUP2 PUSH2 0x90 JUMP JUMPDEST SWAP3 SWAP2 POP POP JUMP JUMPDEST PUSH1 0x0 PUSH1 0x20 DUP3 DUP5 SUB SLT ISZERO PUSH2 0x6A JUMPI PUSH2 0x69 PUSH2 0x8B JUMP JUMPDEST JUMPDEST PUSH1 0x0 PUSH2 0x78 DUP5 DUP3 DUP6 ADD PUSH2 0x3F JUMP JUMPDEST SWAP2 POP POP SWAP3 SWAP2 POP POP JUMP JUMPDEST PUSH1 0x0 DUP2 SWAP1 POP SWAP2 SWAP1 POP JUMP JUMPDEST PUSH1 0x0 DUP1 REVERT JUMPDEST PUSH2 0x99 DUP2 PUSH2 0x81 JUMP JUMPDEST DUP2 EQ PUSH2 0xA4 JUMPI PUSH1 0x0 DUP1 REVERT JUMPDEST POP JUMP JUMPDEST PUSH2 0x2D9 DUP1 PUSH2 0xB6 PUSH1 0x0 CODECOPY PUSH1 0x0 RETURN INVALID PUSH1 0x80 PUSH1 0x40 MSTORE CALLVALUE DUP1 ISZERO PUSH2 0x10 JUMPI PUSH1 0x0 DUP1 REVERT JUMPDEST POP PUSH1 0x4 CALLDATASIZE LT PUSH2 0x4C JUMPI PUSH1 0x0 CALLDATALOAD PUSH1 0xE0 SHR DUP1 PUSH4 0x7391DD6 EQ PUSH2 0x51 JUMPI DUP1 PUSH4 0xF3D0204 EQ PUSH2 0x6D JUMPI DUP1 PUSH4 0xA055FCEA EQ PUSH2 0x9D JUMPI DUP1 PUSH4 0xF2C9ECD8 EQ PUSH2 0xCD JUMPI JUMPDEST PUSH1 0x0 DUP1 REVERT JUMPDEST PUSH2 0x6B PUSH1 0x4 DUP1 CALLDATASIZE SUB DUP2 ADD SWAP1 PUSH2 0x66 SWAP2 SWAP1 PUSH2 0x161 JUMP JUMPDEST PUSH2 0xEB JUMP JUMPDEST STOP JUMPDEST PUSH2 0x87 PUSH1 0x4 DUP1 CALLDATASIZE SUB DUP2 ADD SWAP1 PUSH2 0x82 SWAP2 SWAP1 PUSH2 0x18E JUMP JUMPDEST PUSH2 0xF5 JUMP JUMPDEST PUSH1 0x40 MLOAD PUSH2 0x94 SWAP2 SWAP1 PUSH2 0x1DD JUMP JUMPDEST PUSH1 0x40 MLOAD DUP1 SWAP2 SUB SWAP1 RETURN JUMPDEST PUSH2 0xB7 PUSH1 0x4 DUP1 CALLDATASIZE SUB DUP2 ADD SWAP1 PUSH2 0xB2 SWAP2 SWAP1 PUSH2 0x161 JUMP JUMPDEST PUSH2 0x10B JUMP JUMPDEST PUSH1 0x40 MLOAD PUSH2 0xC4 SWAP2 SWAP1 PUSH2 0x1DD JUMP JUMPDEST PUSH1 0x40 MLOAD DUP1 SWAP2 SUB SWAP1 RETURN JUMPDEST PUSH2 0xD5 PUSH2 0x143 JUMP JUMPDEST PUSH1 0x40 MLOAD PUSH2 0xE2 SWAP2 SWAP1 PUSH2 0x1DD JUMP JUMPDEST PUSH1 0x40 MLOAD DUP1 SWAP2 SUB SWAP1 RETURN JUMPDEST DUP1 PUSH1 0x0 DUP2 SWAP1 SSTORE POP POP JUMP JUMPDEST PUSH1 0x0 DUP2 DUP4 PUSH2 0x103 SWAP2 SWAP1 PUSH2 0x1F8 JUMP JUMPDEST SWAP1 POP SWAP3 SWAP2 POP POP JUMP JUMPDEST PUSH1 0x0 PUSH1 0x1 DUP3 SWAP1 DUP1 PUSH1 0x1 DUP2 SLOAD ADD DUP1 DUP3 SSTORE DUP1 SWAP2 POP POP PUSH1 0x1 SWAP1 SUB SWAP1 PUSH1 0x0 MSTORE PUSH1 0x20 PUSH1 0x0 KECCAK256 ADD PUSH1 0x0 SWAP1 SWAP2 SWAP1 SWAP2 SWAP1 SWAP2 POP SSTORE PUSH1 0x1 DUP1 SLOAD SWAP1 POP SWAP1 POP SWAP2 SWAP1 POP JUMP JUMPDEST PUSH1 0x0 DUP1 SLOAD SWAP1 POP SWAP1 JUMP JUMPDEST PUSH1 0x0 DUP2 CALLDATALOAD SWAP1 POP PUSH2 0x15B DUP2 PUSH2 0x28C JUMP JUMPDEST SWAP3 SWAP2 POP POP JUMP JUMPDEST PUSH1 0x0 PUSH1 0x20 DUP3 DUP5 SUB SLT ISZERO PUSH2 0x177 JUMPI PUSH2 0x176 PUSH2 0x287 JUMP JUMPDEST JUMPDEST PUSH1 0x0 PUSH2 0x185 DUP5 DUP3 DUP6 ADD PUSH2 0x14C JUMP JUMPDEST SWAP2 POP POP SWAP3 SWAP2 POP POP JUMP JUMPDEST PUSH1 0x0 DUP1 PUSH1 0x40 DUP4 DUP6 SUB SLT ISZERO PUSH2 0x1A5 JUMPI PUSH2 0x1A4 PUSH2 0x287 JUMP JUMPDEST JUMPDEST PUSH1 0x0 PUSH2 0x1B3 DUP6 DUP3 DUP7 ADD PUSH2 0x14C JUMP JUMPDEST SWAP3 POP POP PUSH1 0x20 PUSH2 0x1C4 DUP6 DUP3 DUP7 ADD PUSH2 0x14C JUMP JUMPDEST SWAP2 POP POP SWAP3 POP SWAP3 SWAP1 POP JUMP JUMPDEST PUSH2 0x1D7 DUP2 PUSH2 0x24E JUMP JUMPDEST DUP3 MSTORE POP POP JUMP JUMPDEST PUSH1 0x0 PUSH1 0x20 DUP3 ADD SWAP1 POP PUSH2 0x1F2 PUSH1 0x0 DUP4 ADD DUP5 PUSH2 0x1CE JUMP JUMPDEST SWAP3 SWAP2 POP POP JUMP JUMPDEST PUSH1 0x0 PUSH2 0x203 DUP3 PUSH2 0x24E JUMP JUMPDEST SWAP2 POP PUSH2 0x20E DUP4 PUSH2 0x24E JUMP JUMPDEST SWAP3 POP DUP3 PUSH32 0xFFFFFFFFFFFFFFFFFFFFFFFFFFFFFFFFFFFFFFFFFFFFFFFFFFFFFFFFFFFFFFFF SUB DUP3 GT ISZERO PUSH2 0x243 JUMPI PUSH2 0x242 PUSH2 0x258 JUMP JUMPDEST JUMPDEST DUP3 DUP3 ADD SWAP1 POP SWAP3 SWAP2 POP POP JUMP JUMPDEST PUSH1 0x0 DUP2 SWAP1 POP SWAP2 SWAP1 POP JUMP JUMPDEST PUSH32 0x4E487B7100000000000000000000000000000000000000000000000000000000 PUSH1 0x0 MSTORE PUSH1 0x11 PUSH1 0x4 MSTORE PUSH1 0x24 PUSH1 0x0 REVERT JUMPDEST PUSH1 0x0 DUP1 REVERT JUMPDEST PUSH2 0x295 DUP2 PUSH2 0x24E JUMP JUMPDEST DUP2 EQ PUSH2 0x2A0 JUMPI PUSH1 0x0 DUP1 REVERT JUMPDEST POP JUMP INVALID LOG2 PUSH5 0x6970667358 0x22 SLT KECCAK256 SWAP15 0xEC 0xD9 0x4C 0xD1 DIFFICULTY LOG3 EXTCODECOPY DUP14 PUSH27 0x3BFE7C07D3FC8ACCD339026B9C322BA2CE23DEE809CC64736F6C63 NUMBER STOP ADDMOD SMOD STOP CALLER "
		},
		"gasEstimates": {
			"creation": {
				"codeDepositCost": "145800",
				"executionCost": "infinite",
				"totalCost": "infinite"
			},
			"external": {
				"addNumToArray(uint256)": "infinite",
				"addNumber(uint256,uint256)": "infinite",
				"changeNumber(uint256)": "22498",
				"getNumber()": "2481"
			}
		},
		"methodIdentifiers": {
			"addNumToArray(uint256)": "a055fcea",
			"addNumber(uint256,uint256)": "0f3d0204",
			"changeNumber(uint256)": "07391dd6",
			"getNumber()": "f2c9ecd8"
		}
	},
	"abi": [
		{
			"inputs": [
				{
					"internalType": "uint256",
					"name": "_num",
					"type": "uint256"
				}
			],
			"stateMutability": "nonpayable",
			"type": "constructor"
		},
		{
			"inputs": [
				{
					"internalType": "uint256",
					"name": "_num",
					"type": "uint256"
				}
			],
			"name": "addNumToArray",
			"outputs": [
				{
					"internalType": "uint256",
					"name": "",
					"type": "uint256"
				}
			],
			"stateMutability": "nonpayable",
			"type": "function"
		},
		{
			"inputs": [
				{
					"internalType": "uint256",
					"name": "_num1",
					"type": "uint256"
				},
				{
					"internalType": "uint256",
					"name": "_num2",
					"type": "uint256"
				}
			],
			"name": "addNumber",
			"outputs": [
				{
					"internalType": "uint256",
					"name": "",
					"type": "uint256"
				}
			],
			"stateMutability": "pure",
			"type": "function"
		},
		{
			"inputs": [
				{
					"internalType": "uint256",
					"name": "_num",
					"type": "uint256"
				}
			],
			"name": "changeNumber",
			"outputs": [],
			"stateMutability": "nonpayable",
			"type": "function"
		},
		{
			"inputs": [],
			"name": "getNumber",
			"outputs": [
				{
					"internalType": "uint256",
					"name": "",
					"type": "uint256"
				}
			],
			"stateMutability": "view",
			"type": "function"
		}
	]
}